:20000000202000001300000000000000E000000040200000800000000001000002000000CA
:20002000100000002000000000000000F0000000FFFFFFFF0F000000000000000000000095
:2000400000000000000000000001000000000000000000000000000000000000000000009F
:200060000000000000000100010000010000000000000000000000046204000000EBC00068
:200080000BFFFFFF0000F0440C000000010000000404040402220001000000000000C00022
:2000A0000000400200000000000000000000000000000000000000000100000433080C00B2
:2000C000001800001F3C20C200C0230002FF00003F8000001C1C23E10310000004E70018D6
:2000E0000C440000080000E3001F10000F382CC00000A002000004000000000000000000BD
:2001000000000000000000000000000000000211040400044440000100000000000000003B
:2001200000000000000000000000000000000000000000000000000000000000001F0000A0
:20014000001F00000000000001020045000000000014002A000000000000000001000000F9
:20016000010900B20000000001800060001800070000200000000004640502000300EC0045
:200180000CFFFFFF62A0F0410C000000000000000404040044040001000000000000400280
:2001A000001030100010101200000000000000000000000000000000000000002300580042
:2001C000420024010000030000000301030000000300000000010300000000007000000136
:2001E00070010000110024000300000070000C01000008000000404025030600010E000C08
:2002000011FFFFFF62A0F0410C00000000000000040404000202000100000000000040023E
:200220000010301000101012000000000000000000000000000000004F3C3002030000403C
:2002400002180000000423004C1C33217F000040733F0C00081000000000000404080000FC
:200260000C27001801000023401F10380F402C000800A0020000011002000000001000051B
:2002800012FF07FF4020F0050800000000000210040404042225000140A840200000000038
:2002A00000000000000000000000000000000000000000000000000000000000010000003D
:2002C000000000010000010100000000000000000100000000000100000000000000000019
:2002E0000000000000000000000001000000000108000000000000400000000000000000B4
:200300000000000000000000000000000000000004040000040000010000000000000000D0
:200320000000000000000000000000000000000000000000000000000100000006000000B6
:20034000000000000001040000000000000008000000000000000000020000000000080086
:200360000600000000000000000008010600010020000000000014040200000000005100DC
:200380000CFF07FF4020F0050800000000000000040404000404000140A840200000000092
:2003A0000000000000000000000000000000000000000000000000000000040004000040F5
:2003C0000403001C0100020008000000000004400220010000000000002904000B03003419
:2003E0000B0300040000003E04000038030F084000000028000001406203000000000EBC7F
:2004000034FFFFFF0000F0440C000000180000000404040442240001000000000000C0001C
:200420000000400200000000000000000000000000000000000000004000000038000408F6
:200440002800000000000001010C0600180C2200120020000000000020001800000420008C
:2004600000000001000200003E01000C40020100000800000000501553000000000000002B
:2004800000FFFFFF000000011800000001000000040404040541000140004000404080006E
:2004A000800080008000800000000000000000000000000000000000000000000800000034
:2004C0000000000E00000100000000000000000608040200000101000200040A000C0E00CD
:2004E00002000C000000000001000E0E00010000000008080000011053000000000000005C
:2005000000FFFFFF0083030118000000000000000404040455010001400040004040800058
:200520008000800080008000000000000000000000000000000000000000000000020E00AB
:20054000000000000000000003000400000000000001000003000C0000000000090000007B
:2005600003000400100000000F0210000001000000000200000004015300000000000000E8
:2005800000FFFFFF0083030118008000000000000404040455110001400040004040800048
:2005A0008000800080008000000000000000000000000000000000003800040500000100F9
:2005C00018002200000006000000010001000003000020070110000028080000120020003C
:2005E00000020100200618000100000700083E1000000008000001505300000000EC2000A4
:200600000BFFFFFF008303011800000001000000040404042251000140004000404080002E
:200620008000800080008000000000000000000000000000000000001C060218140000006A
:200640006000000009121000000003006000001C0000400000001000200000000C01110002
:2006600010060C08000600081F000001601E000020000020000010044206000000E000CB5D
:2006800032FFFFFF0000F0440C000000010000000404040423150001000000000000C000E1
:2006A0000000400200000000000000000000000000000000000000000000020000100000E6
:2006C0000403000C000900000100000000030004030000000000000E0000000000030004DE
:2006E00003000000000000000000040F0000031080000008000044000500000000500001AF
:2007000012FF07FF4020F0050800000000000000040404003003000140A8402000000000DD
:2007200000000000000000000000000000000000000000000000000000000E002000000289
:2007400000020000000000020C000000000200000004060004000002010000001000000066
:2007600000010A0000000000100201010E04200000002000000045153402000000EB000C81
:2007800013FFFFFF0000F0440C000000010000000404040403330001000000000000C00001
:2007A0000000400200000000000000000000000000000000000000000001070200040000E9
:2007C0000108020000000000000400010000000701010606040000000400010000000000EB
:2007E0000000000000000000000000080008070700008080000000100200000000001005B4
:2008000018FF07FF4020F0050800000000000000040404002302000140A8402000000000E4
:200820000000000000000000000000000000000000000000000000000000000000000000B8
:20084000000000000000000000000000000000000100000000000000000000000000000097
:20086000010000000100000000000000010000000000002000000000000000000000000055
:200880000000000000000000000000000000021004040004333000010000000000000000D6
:2008A0000000000000000000000000000000000000000000000000000F020085051F00007E
:2008C0000A1F00003C0943527F20000070140F4A4F20300000004F0020000000102000005B
:2008E0003020000000000000702000C03C180307000020000000000536050400020E000C7A
:2009000011FFFFFF62A0F0410C0000001800000004040404333300010000000000004002B9
:2009200000103010001010120000000000000000000000000000000010000004301C0000D5
:20094000001808042000000100180004380405180F183000401000000000060208008002A4
:200960003F00000138080300401C3E01800201008000080200000114000000000000000037
:200980000000000000000000000000001800040004040004334000010000000000000000BB
:2009A000000000000000000000000000000000000000000000000000090410010000100009
:2009C000000003001C0002000000000010010C060C011102000000070000000000040000A8
:2009E000000000001400000000071F0000001F00000000020000000000000000000000009C
:200A0000000000000000000000000000000000000404000044000001000000000000000089
:200A20000000000000000000000000000000000000000000000000000000000000000000B6
:200A4000000000000000000000000000000000000000000000000000000000000000000096
:200A600000000000000000000000000000000000000800000000000400000000000000006A
:200A8000000000000000000000000000000000000004000000000001000000000000000051
:200AA000000000000000000000000000000000000000000000000000000000000000000036
:200AC00000000000000000000F720000720000380F00000F0D000F000000000000000000B1
:200AE000000000000000000000000000723838000000000000000000000000000000000014
:200B00000000000004000000000000000000000000000000000000000000000000000000D1
:200B20000000000000000000000000000000000000000000000000000000000000000000B5
:200B400000000000000000000000000000000000000000000000000800000000000000008D
:200B6000000000000000000000000000000000000000000000000000000000000000000075
:200B8000040000000000000000000000000000000000000800000000000000000000000049
:200BA000000000000000000000000000000800000000000000000000000004000000000029
:200BC000000000000000000000000000000001000000000000000000000000000000010013
:200BE0000000000008000000000000000000000000000000000000000000000000000000ED
:200C00000000000000000000000000000000000000000008000000000000000000080000C4
:200C20000000000000000000000000000000000800000000000000000000000000000000AC
:200C4000000000000000000000000000000000000000000000000000000000000000000094
:200C600000000000020000000000000000000000000000000000000000000000000000046E
:200C8000000000000000000000000000000000080000000000000000000000000008000044
:200CA000000000000000000000000000000000000000000000000000000000000000000034
:200CC000000000000000000000000000000000000000000000000000000000000000000014
:200CE0000000000000000000000000000000000000000000000000000000000000000000F4
:200D00000000000000000000000000000000000000000000000000000000000000000000D3
:200D20000000000000000000000000000000000000000000000000000000000000080000AB
:200D4000000000000000000000000000000000000000000000000000000000000000000093
:200D6000000000000000000000000000000000000000000000000000000000000000000073
:200D800000000000000000000000000000000008000000000000000000000000000000004B
:200DA0002000010100000010000004000000000000000000000000000000000000000000FD
:200DC000000000000000000001000000000000000000000000000000000000000000000012
:200DE0000000000000000400000000000000000000000000000000000000000000000000EF
:200E000000000402200002100000000000000000000000000000000000000000000000009A
:200E20000000000000000000000000000000000000000000000000000000000000000000B2
:200E4000000000000000000000000000000000000000000000000000000000000000000092
:200E6000000000000000000000000000000000000000000000000000000000000000000072
:200E800000000000000000000000000000000008000000000000000000000000000000004A
:200EA000000000000000000004000000000000000000000000000000000007000000000027
:200EC000000000000000000000000000000000000000000000000000000000000000000012
:200EE0000000000000000100000000000000000000000000000000000000000000000000F1
:200F000020002000041000000000000000000000000000000000000000000000000000007D
:200F20000000000000000000000000000000000000000000000000000000000000000000B1
:200F4000000000000000000000000000000000000000000000000000000000000000000091
:200F600000000000000000000000000000000000000000000000000400000000000000006D
:200F8000201000000000100000000000000000000000000000000000000000000000000011
:200FA00000000000000000000000000000000000000000000000000000000F000000000022
:200FC000000000000000000000000000000000000000000000000100000003000000040009
:200FE0000000000000000000000000000000000000000000000000000000000000000000F1
:201000000000000000000000000000000000000000000000000000000000000000000000D0
:201020000000000000000000000000000000000000000000000000000000000000000000B0
:20104000000000000000000000000000000000000000000000000000000000000000800010
:2010600000000000100000000000000000000000000000000000000000000000010020053A
:201080000000040000001842021000000000002A00000800000249100800200001000054D6
:2010A000000000001000101000000000000022050000000001100480000000001002001022
:2010C00000000000000404400000000000000008000000400000010000000000000040043B
:2010E00002100400000000000040002A000000000000000000000000000020400080000888
:20110000000024410000000000001004000440000000400000C020200000020004000409BF
:20112000000000000000000000000000000000000000000000000000F000F200730000005A
:2011400000006000E000F000E0003000000088003000000000000000000000000000800017
:2011600000000000100000000000000000000000000000000000000000000000000000005F
:2011800000000000000000000000000000000000000000000000000000000400000000004B
:2011A00000000000000000000000000000000000000000000000000000000000000000002F
:2011C00000000000000000000000000000000000000000000000000000000000000000000F
:2011E0000000000000000000000000000000000000000000000000000000000000000000EF
:201200000000000000000001000000000000080200000000000000000000000000000000C3
:2012200000200000000000000001400000000002000000000000000000000000000000004B
:2012400000000000000000000000000000000000000000000000000040000000000000004E
:201260000000000080000000000000000000000000000000000000009208800000508020E4
:2012800000002800000019000000010C0001284010000100001010428001000000000A4851
:2012A000000800100084804800009400004006200002000008015802000000000240000029
:2012C000000000000000000000000000000000000000000002000000000000000101000802
:2012E0000000000000000000000000000000000000000000000000000001000000004800A5
:20130000000000000000000000002808000200000100010000000000014000100000000246
:20132000000000080000000000000040000000000000000000000000FF00E600F10000008F
:201340000000F200FE00F1000000000000008000B00000000000000040000000000000003C
:201360000000000001000000000000000000000000000000000000000000102100084800EB
:20138000100000020010801040040800400010000008000200808800000028104024000051
:2013A00010090000000860000000482000010800002000000804004000002000000020008F
:2013C000000000400000004000000000000000000000000000610800000000000000000024
:2013E000000000010000000000000000000000000000000000000000008000000020240028
:2014000000000000004000000020C040400000104001280000080000040000200004000083
:20142000000080000000000000000000000000000000000000000000750073003E00000006
:2014400000007300CE005400420018000000F0000000000000000000400000000800000065
:201460000000000000000000000000000000000000000000000000001A4000000040402072
:201480000008840000002000401400004022100000A20400026000041810942000000010E2
:2014A000604000080000000000000820000000000028000000000080300000100020000054
:2014C0000400000000000000000801480000407000010000000000000000A0000000000066
:2014E0000000000000000000000000000000000000000000000000000000000000000000EC
:201500000000000000020000005C8000000000000101100000A000000040380000000002C1
:20152000000000000000000000000000000000000000000000000000BF002E007E00000040
:2015400000000F000600160026000400000001000C0000000000000000000800000003001E
:20156000000000000000040000000000000000000000000000000000080000002048900067
:2015800042020000420208120100101090200200000120010040800008110000200088082B
:2015A0000000000000028008200000001040080008000000000002000000200000002000DF
:2015C0000000004000000045000000000000200000000000100280080000000000000000CC
:2015E00000000000000000000000004000000000000004080000000000041000000000008B
:2016000020000020120000000800C0006002001591028A00400000000200000820000000B2
:20162000100040001000120001000000000000020000000000000000F400F900F700000051
:201640000000B00074008200420018000000F00000000000000000008000000020000000FA
:2016600000000900400005000000000000000000000000000000000004A0008008400000B0
:201680000082240000000A000040001800000000001046A8000020000003284000000001B8
:2016A0000092080000000000008011080100000100420014002000800020000000000000DF
:2016C000400000000000000000000004000000000000400000000000000000000000000086
:2016E000001480000000000000800818000000000000000000000000002000000000000294
:2017000040000004000000000C482004001402400043100000A00000005005400000082007
:20172000800040480800000000000000100000000000000000000000AF00CF000700000004
:2017400000000F000F003F0004000000000008000000000000000000000004000000040018
:2017600000000D0000000C00000000000000000000000000000000002200000020284002A4
:20178000200008809000680000100800201080010044000000204000120088020000101080
:2017A0000000040020200002000084000000040018000080000082000000000040000010F1
:2017C0008040000200020010040000000200080000000000400000050000000000000000E2
:2017E0000000000000000000000000000000000000000000000000000004040000080000D9
:20180000000000010080000000000880100200028088440100200200000804080020880080
:20182000000000000000000500000008800000000000000000000000FA00FA0072000000B5
:20184000000072004A009E00A00028000000D0000000000000000000000000000000600036
:2018600010000000000080000000000000000000000000000000000004A000000000000034
:201880000020224002000000005400000000081415012000000208020000400000092001A8
:2018A00028000000000000088100000000002001200000000000180011200020001A0000B3
:2018C000008008040400020000040000000010400000000000000000000000000000000022
:2018E0000000000000000000000000000000000000000000080002112000000000000000AD
:201900000100000000000401284010000000C0200042001400000041025001000003240A4E
:2019200000400000000000000000000000040000000000000000000007001F0067000000D6
:2019400000002600A9006400EE003C000000000000000000000000000000020000004500E3
:20196000000002000000880000000000000000000000000000000000000290001002000039
:201980000000058200000500800008080000442000840C0100000040000800840000140155
:2019A00008000000000000000000842000200401180040800800022010010400002000001F
:2019C00080090000000000000400040004000018000500A0000000000000000000000000B5
:2019E0000000000000000000000000000000000000000000000000000000000000001000D7
:201A000000001020080000000000000000000000000000000000000000000000000000008E
:201A20000000000000000000000000000000000000000000000000005C00CB001E00000061
:201A400000000400EE00EE002700000000000F0000000000000000000000C0000000200090
:201A6000000000000000000000000000000000000000000000000000000000002C500040AA
:201A80000000000000022A00004000000000012900020000144000200000040040500100A5
:201AA000000000000000022A000100000040340100000000400228000800400000000000D2
:201AC000000500200000000010000000000000000011880010000000000000000000000028
:201AE00000000000020010140000000000002B280000000000000000000000000800000065
:201B00000000000000000000000000000000000000000000000000000000000000000000C5
:201B2000000000000000000000000000000000000000000000000000B000F000F100000014
:201B40000000F000F100F0000500040000002F0000000000000000000000C0000000280094
:201B6000000000000000000000000000000000000000000000000000000000000000000065
:201B80000000000000200000000000000000000000000000000000000000000000008000A5
:201BA000000000000000000000000000000000000000000000000000000000000000000025
:201BC0000000000000000000000000000000000000000000000100001000000000000000F4
:201BE0000000000000000000000000000000000000000000000000000020000000000000C5
:201C0000000001000000000010010000000001000000000000000000000000000000800031
:201C2000000000000000000000000000001000000000000000000000000080000000000014
:201C4000200000000000000000000000000080004000000000000000200000000000000084
:201C6000000000000000000000000000000000000000000000000000000000000000000064
:201C8000000000000000000000000000000000000000000000000000000000000010000034
:201CA000000000000000000000000000000000000000000000000000000000000000000024
:201CC000000000000000000000000000000000000000000000000000000000000000000004
:201CE0000000000000000000000000000000000000000000000000000000010000000000E3
:201D0000000000000000800010010000000001000000000000000100000000000000000030
:201D20000000000000000000000000000000000000000000000000000000000000000000A3
:201D4000200000000000000000000000000000000000000000000000000020000000000043
:201D6000000000000000000000000000000000000000000000000000100000001001000042
:201D8000000000000000000000000000000001000000000010000100000000000000000031
:201DA000001000000000000000000000000000000000000000000000000000000000000013
:201DC000000000000000000000000000000000000000000000000000000010000000C00033
:201DE0000000000000002000000000000000000000000000000000000000000000000000C3
:201E00000000000000000000000000000000000000000000000000000000000000000000C2
:201E2000000000000000000000080020088000000000210000800100000000000000000050
:201E4000000000000000000000000000000000000000000000000000000000000000000082
:201E60000000000000000000000000000000000000000000000000000040000000000040E2
:201E8000000000000000000000000000004000800880200010100000004800200000000052
:201EA000080040800000000800000000000000000000000000000000000000000000000052
:201EC00000000000F000F000000000000000000000000000000000000000100000002000F2
:201EE000000090008000200000000000000000000000000000000000000020000000001082
:201F0000000080000000000000000000000000000000000000000000000000000000000041
:201F20000000000000000000080000801000020040000000000000000000000000000000C7
:201F4000000000000000000000000000000000000000000000000000000000000000008001
:201F600000000000000000000000000000000000000000000000000000040000000002005B
:201F8000000000000000200040000000004000000880000000140018004800200000200065
:201FA000000200000008002000800000000000000000000000000000300010000000000037
:201FC00000000000F0001000000000000000000080000000000000000000400000008000C1
:201FE000000040002000100000000000000000000000000000000000080018010000000050
:00000001FF
